{
  "contractName": "RockPaperScissors",
  "abi": [
    {
      "inputs": [],
      "payable": false,
      "stateMutability": "nonpayable",
      "type": "constructor"
    },
    {
      "anonymous": false,
      "inputs": [
        {
          "indexed": false,
          "internalType": "address",
          "name": "winner",
          "type": "address"
        },
        {
          "indexed": false,
          "internalType": "uint256",
          "name": "amount",
          "type": "uint256"
        }
      ],
      "name": "GameEnded",
      "type": "event"
    },
    {
      "anonymous": false,
      "inputs": [
        {
          "indexed": false,
          "internalType": "string",
          "name": "winner",
          "type": "string"
        },
        {
          "indexed": false,
          "internalType": "uint256",
          "name": "amount",
          "type": "uint256"
        }
      ],
      "name": "GameState",
      "type": "event"
    },
    {
      "anonymous": false,
      "inputs": [
        {
          "indexed": true,
          "internalType": "address",
          "name": "_from",
          "type": "address"
        },
        {
          "indexed": true,
          "internalType": "address",
          "name": "_to",
          "type": "address"
        },
        {
          "indexed": false,
          "internalType": "uint256",
          "name": "_value",
          "type": "uint256"
        }
      ],
      "name": "Transfer",
      "type": "event"
    },
    {
      "payable": true,
      "stateMutability": "payable",
      "type": "fallback"
    },
    {
      "constant": true,
      "inputs": [],
      "name": "dealer",
      "outputs": [
        {
          "internalType": "address payable",
          "name": "",
          "type": "address"
        }
      ],
      "payable": false,
      "stateMutability": "view",
      "type": "function"
    },
    {
      "constant": true,
      "inputs": [],
      "name": "dealerFund",
      "outputs": [
        {
          "internalType": "uint256",
          "name": "",
          "type": "uint256"
        }
      ],
      "payable": false,
      "stateMutability": "view",
      "type": "function"
    },
    {
      "constant": true,
      "inputs": [],
      "name": "owner",
      "outputs": [
        {
          "internalType": "address",
          "name": "",
          "type": "address"
        }
      ],
      "payable": false,
      "stateMutability": "view",
      "type": "function"
    },
    {
      "constant": true,
      "inputs": [],
      "name": "player",
      "outputs": [
        {
          "internalType": "address payable",
          "name": "",
          "type": "address"
        }
      ],
      "payable": false,
      "stateMutability": "view",
      "type": "function"
    },
    {
      "constant": true,
      "inputs": [],
      "name": "playerFund",
      "outputs": [
        {
          "internalType": "uint256",
          "name": "",
          "type": "uint256"
        }
      ],
      "payable": false,
      "stateMutability": "view",
      "type": "function"
    },
    {
      "constant": false,
      "inputs": [
        {
          "internalType": "address payable",
          "name": "_dealer",
          "type": "address"
        },
        {
          "internalType": "uint256",
          "name": "_fund",
          "type": "uint256"
        }
      ],
      "name": "setDealer",
      "outputs": [
        {
          "internalType": "bool",
          "name": "success",
          "type": "bool"
        }
      ],
      "payable": false,
      "stateMutability": "nonpayable",
      "type": "function"
    },
    {
      "constant": false,
      "inputs": [
        {
          "internalType": "address payable",
          "name": "_player",
          "type": "address"
        },
        {
          "internalType": "uint256",
          "name": "_fund",
          "type": "uint256"
        }
      ],
      "name": "setPlayer",
      "outputs": [
        {
          "internalType": "bool",
          "name": "success",
          "type": "bool"
        }
      ],
      "payable": true,
      "stateMutability": "payable",
      "type": "function"
    },
    {
      "constant": false,
      "inputs": [
        {
          "internalType": "uint256",
          "name": "dealerAction",
          "type": "uint256"
        },
        {
          "internalType": "uint256",
          "name": "playerAction",
          "type": "uint256"
        },
        {
          "internalType": "uint256",
          "name": "bettingAmount",
          "type": "uint256"
        }
      ],
      "name": "compare",
      "outputs": [
        {
          "internalType": "string",
          "name": "results",
          "type": "string"
        }
      ],
      "payable": false,
      "stateMutability": "nonpayable",
      "type": "function"
    },
    {
      "constant": false,
      "inputs": [
        {
          "internalType": "address",
          "name": "sender",
          "type": "address"
        },
        {
          "internalType": "address",
          "name": "receiver",
          "type": "address"
        },
        {
          "internalType": "uint256",
          "name": "amount",
          "type": "uint256"
        }
      ],
      "name": "sendCoin",
      "outputs": [
        {
          "internalType": "bool",
          "name": "sufficient",
          "type": "bool"
        }
      ],
      "payable": false,
      "stateMutability": "nonpayable",
      "type": "function"
    },
    {
      "constant": true,
      "inputs": [
        {
          "internalType": "address",
          "name": "addr",
          "type": "address"
        }
      ],
      "name": "getBalanceInEth",
      "outputs": [
        {
          "internalType": "uint256",
          "name": "",
          "type": "uint256"
        }
      ],
      "payable": false,
      "stateMutability": "view",
      "type": "function"
    },
    {
      "constant": true,
      "inputs": [
        {
          "internalType": "uint256",
          "name": "amount",
          "type": "uint256"
        },
        {
          "internalType": "uint256",
          "name": "conversionRate",
          "type": "uint256"
        }
      ],
      "name": "convert",
      "outputs": [
        {
          "internalType": "uint256",
          "name": "convertedAmount",
          "type": "uint256"
        }
      ],
      "payable": false,
      "stateMutability": "pure",
      "type": "function"
    },
    {
      "constant": true,
      "inputs": [
        {
          "internalType": "address",
          "name": "addr",
          "type": "address"
        }
      ],
      "name": "getBalance",
      "outputs": [
        {
          "internalType": "uint256",
          "name": "",
          "type": "uint256"
        }
      ],
      "payable": false,
      "stateMutability": "view",
      "type": "function"
    }
  ],
  "bytecode": "0x608060405234801561001057600080fd5b50336000806101000a81548173ffffffffffffffffffffffffffffffffffffffff021916908373ffffffffffffffffffffffffffffffffffffffff160217905550610f88806100606000396000f3fe6080604052600436106100a75760003560e01c80638da5cb5b116100645780638da5cb5b146102fc57806391d2dc481461035357806396e4ee3d1461037e5780639de2ee21146103d7578063f731955d1461042e578063f8b2cb4f146104f6576100a7565b8063014892a4146100a95780630b40bd881461010f5780631207ca52146101a257806348db5f89146102155780637bd703e81461026c5780638410315b146102d1575b005b6100f5600480360360408110156100bf57600080fd5b81019080803573ffffffffffffffffffffffffffffffffffffffff1690602001909291908035906020019092919050505061055b565b604051808215151515815260200191505060405180910390f35b34801561011b57600080fd5b506101886004803603606081101561013257600080fd5b81019080803573ffffffffffffffffffffffffffffffffffffffff169060200190929190803573ffffffffffffffffffffffffffffffffffffffff1690602001909291908035906020019092919050505061060e565b604051808215151515815260200191505060405180910390f35b3480156101ae57600080fd5b506101fb600480360360408110156101c557600080fd5b81019080803573ffffffffffffffffffffffffffffffffffffffff1690602001909291908035906020019092919050505061076b565b604051808215151515815260200191505060405180910390f35b34801561022157600080fd5b5061022a61081e565b604051808273ffffffffffffffffffffffffffffffffffffffff1673ffffffffffffffffffffffffffffffffffffffff16815260200191505060405180910390f35b34801561027857600080fd5b506102bb6004803603602081101561028f57600080fd5b81019080803573ffffffffffffffffffffffffffffffffffffffff169060200190929190505050610844565b6040518082815260200191505060405180910390f35b3480156102dd57600080fd5b506102e6610860565b6040518082815260200191505060405180910390f35b34801561030857600080fd5b50610311610866565b604051808273ffffffffffffffffffffffffffffffffffffffff1673ffffffffffffffffffffffffffffffffffffffff16815260200191505060405180910390f35b34801561035f57600080fd5b5061036861088b565b6040518082815260200191505060405180910390f35b34801561038a57600080fd5b506103c1600480360360408110156103a157600080fd5b810190808035906020019092919080359060200190929190505050610891565b6040518082815260200191505060405180910390f35b3480156103e357600080fd5b506103ec61089e565b604051808273ffffffffffffffffffffffffffffffffffffffff1673ffffffffffffffffffffffffffffffffffffffff16815260200191505060405180910390f35b34801561043a57600080fd5b5061047b6004803603606081101561045157600080fd5b810190808035906020019092919080359060200190929190803590602001909291905050506108c4565b6040518080602001828103825283818151815260200191508051906020019080838360005b838110156104bb5780820151818401526020810190506104a0565b50505050905090810190601f1680156104e85780820380516001836020036101000a031916815260200191505b509250505060405180910390f35b34801561050257600080fd5b506105456004803603602081101561051957600080fd5b81019080803573ffffffffffffffffffffffffffffffffffffffff169060200190929190505050610f0a565b6040518082815260200191505060405180910390f35b600082600260006101000a81548173ffffffffffffffffffffffffffffffffffffffff021916908373ffffffffffffffffffffffffffffffffffffffff1602179055508160066000600260009054906101000a900473ffffffffffffffffffffffffffffffffffffffff1673ffffffffffffffffffffffffffffffffffffffff1673ffffffffffffffffffffffffffffffffffffffff168152602001908152602001600020819055506001905092915050565b600081600660008673ffffffffffffffffffffffffffffffffffffffff1673ffffffffffffffffffffffffffffffffffffffff1681526020019081526020016000205410156106605760009050610764565b81600660008673ffffffffffffffffffffffffffffffffffffffff1673ffffffffffffffffffffffffffffffffffffffff1681526020019081526020016000206000828254039250508190555081600660008573ffffffffffffffffffffffffffffffffffffffff1673ffffffffffffffffffffffffffffffffffffffff168152602001908152602001600020600082825401925050819055508273ffffffffffffffffffffffffffffffffffffffff168473ffffffffffffffffffffffffffffffffffffffff167fddf252ad1be2c89b69c2b068fc378daa952ba7f163c4a11628f55a4df523b3ef846040518082815260200191505060405180910390a3600190505b9392505050565b600082600160006101000a81548173ffffffffffffffffffffffffffffffffffffffff021916908373ffffffffffffffffffffffffffffffffffffffff1602179055508160066000600160009054906101000a900473ffffffffffffffffffffffffffffffffffffffff1673ffffffffffffffffffffffffffffffffffffffff1673ffffffffffffffffffffffffffffffffffffffff168152602001908152602001600020819055506001905092915050565b600260009054906101000a900473ffffffffffffffffffffffffffffffffffffffff1681565b600061085961085283610f0a565b6001610891565b9050919050565b60045481565b6000809054906101000a900473ffffffffffffffffffffffffffffffffffffffff1681565b60035481565b6000818302905092915050565b600160009054906101000a900473ffffffffffffffffffffffffffffffffffffffff1681565b6060828414156109b2576040518060400160405280601181526020017f546965642c20706c617920616761696e2e00000000000000000000000000000081525090507f8636accafe6e543252248bfbd3f92b39b3f233272c8670fda09bb18edb80e2f581836040518080602001838152602001828103825284818151815260200191508051906020019080838360005b8381101561096f578082015181840152602081019050610954565b50505050905090810190601f16801561099c5780820380516001836020036101000a031916815260200191505b50935050505060405180910390a1809050610f03565b60008090506000851415610a52576001841415610a0a576040518060400160405280600b81526020017f506c6179657220776f6e21000000000000000000000000000000000000000000815250915060019050610a4d565b6002841415610a4c576040518060400160405280600b81526020017f4465616c657220776f6e2100000000000000000000000000000000000000000081525091505b5b610b86565b6001851415610aed576000841415610aa1576040518060400160405280600b81526020017f4465616c657220776f6e210000000000000000000000000000000000000000008152509150610ae8565b6002841415610ae7576040518060400160405280600b81526020017f506c6179657220776f6e210000000000000000000000000000000000000000008152509150600190505b5b610b85565b6002851415610b84576000841415610b40576040518060400160405280600b81526020017f506c6179657220776f6e21000000000000000000000000000000000000000000815250915060019050610b83565b6001841415610b82576040518060400160405280600b81526020017f4465616c657220776f6e2100000000000000000000000000000000000000000081525091505b5b5b5b5b7f8636accafe6e543252248bfbd3f92b39b3f233272c8670fda09bb18edb80e2f582846040518080602001838152602001828103825284818151815260200191508051906020019080838360005b83811015610bef578082015181840152602081019050610bd4565b50505050905090810190601f168015610c1c5780820380516001836020036101000a031916815260200191505b50935050505060405180910390a18015610d9957610c7f600160009054906101000a900473ffffffffffffffffffffffffffffffffffffffff16600260009054906101000a900473ffffffffffffffffffffffffffffffffffffffff168561060e565b15610c8957610d94565b6001600560006101000a81548160ff0219169083151502179055506040518060400160405280601681526020017f4465616c657220676f742062616e6b727570746564210000000000000000000081525091507fd4ba6fec82d9b0e8ffe50b9fed9e4be3b25c984ce1e0e016405a5528726e8a2c600260009054906101000a900473ffffffffffffffffffffffffffffffffffffffff16610d4b600260009054906101000a900473ffffffffffffffffffffffffffffffffffffffff16610844565b604051808373ffffffffffffffffffffffffffffffffffffffff1673ffffffffffffffffffffffffffffffffffffffff1681526020018281526020019250505060405180910390a15b610efe565b610de8600260009054906101000a900473ffffffffffffffffffffffffffffffffffffffff16600160009054906101000a900473ffffffffffffffffffffffffffffffffffffffff168561060e565b15610df257610efd565b6001600560006101000a81548160ff0219169083151502179055506040518060400160405280601681526020017f506c6179657220676f742062616e6b727570746564210000000000000000000081525091507fd4ba6fec82d9b0e8ffe50b9fed9e4be3b25c984ce1e0e016405a5528726e8a2c600160009054906101000a900473ffffffffffffffffffffffffffffffffffffffff16610eb4600160009054906101000a900473ffffffffffffffffffffffffffffffffffffffff16610844565b604051808373ffffffffffffffffffffffffffffffffffffffff1673ffffffffffffffffffffffffffffffffffffffff1681526020018281526020019250505060405180910390a15b5b819150505b9392505050565b6000600660008373ffffffffffffffffffffffffffffffffffffffff1673ffffffffffffffffffffffffffffffffffffffff16815260200190815260200160002054905091905056fea265627a7a72315820a5764e3054e50577aa5d5b79c460455092934540c04414fce6f541311ee8c4b064736f6c634300050c0032",
  "source": "pragma solidity ^0.5.12;\n\ncontract RockPaperScissors {\n    // Parameters of the game.\n    address public owner;\n    address payable public dealer;\n    address payable public player;\n\n    uint public dealerFund;\n    uint public playerFund;\n\n    // Set to true at the end, disallows any change\n    bool ended; \n    // Events that will be fired on changes.\n    event GameState(string winner, uint amount);\n    event GameEnded(address winner, uint amount);\n    event Transfer(address indexed _from, address indexed _to, uint256 _value);    \n\n    // for MetaCoin\n    mapping(address => uint) balances;\n    \n    function() external payable {}\n\n    // Create a RockPaperScissors game\n    // Owner is assigned to perform admin tasks\n    constructor() public {\n        owner = msg.sender;\n    }\n\n    function setDealer(address payable _dealer, uint _fund) public returns (bool success) {\n        dealer = _dealer;\n        balances[dealer] = _fund;\n        return true;\n    }\n\n    function setPlayer(address payable _player, uint _fund) payable public returns (bool success) {\n        player = _player;\n        balances[player] = _fund;\n        return true;\n    }\n\n    // compare actions to determine winner\n    // 0: rock, 1: paper, 2: scissor\n    function compare(uint dealerAction, uint playerAction, uint bettingAmount) public returns (string memory results) {\n        if(dealerAction == playerAction) {\n            results = 'Tied, play again.';\n            emit GameState(results, bettingAmount);\n            return results;\n        }\n\n        // determine the winner\n        bool isPlayerWinner = false;\n        if(dealerAction == 0) {\n            if(playerAction == 1) {\n                results = 'Player won!';\n                isPlayerWinner = true;\n            } else if(playerAction == 2) {\n                results = 'Dealer won!';\n            }\n        } else if(dealerAction == 1) {\n            if(playerAction == 0) {\n                results = 'Dealer won!';\n            } else if(playerAction == 2) {\n                results = 'Player won!';\n                isPlayerWinner = true;\n            }\n        } else if(dealerAction == 2) {\n            if (playerAction == 0) {\n                results = 'Player won!';\n                isPlayerWinner = true;\n            } else if (playerAction == 1) {\n                results = 'Dealer won!';\n            }            \n        }\n\n        emit GameState(results, bettingAmount);\n\n        // send betting amount\n        if(isPlayerWinner) {\n            if(sendCoin(dealer, player, bettingAmount)) {\n                // continue game\n            } else {\n                // end of game\n                ended = true;\n                results = 'Dealer got bankrupted!';\n                emit GameEnded(player, getBalanceInEth(player));\n            } \n        } else {\n            if (sendCoin(player, dealer, bettingAmount)) {\n                // continue game\n            } else {\n                // end of game\n                ended = true;\n                results = 'Player got bankrupted!';\n                emit GameEnded(dealer, getBalanceInEth(dealer)); \n            }\n        }\n        return results; \n    }\n\n    function sendCoin(address sender, address receiver, uint amount) public returns(bool sufficient) { \n        if (balances[sender] < amount) return false;\n        balances[sender] -= amount;\n        balances[receiver] += amount;\n        emit Transfer(sender, receiver, amount);\n        return true; \n    }\n\n    function getBalanceInEth(address addr) public view returns(uint){\n        return convert(getBalance(addr), 1);\n    }\n\n    function convert(uint amount,uint conversionRate) public pure returns (uint convertedAmount) {\n        return amount * conversionRate;\n    }\n\n    function getBalance(address addr) public view returns(uint) {\n        return balances[addr];\n    }\n}\n",
  "sourcePath": "/Users/anthonyjoo/Documents/Projects/RPS/contracts/RockPaperScissor.sol",
  "compiler": {
    "name": "solc",
    "version": "0.5.12+commit.7709ece9.Emscripten.clang"
  },
  "schemaVersion": "3.0.20",
  "updatedAt": "2019-12-27T02:58:29.573Z",
  "networkType": "ethereum",
  "devdoc": {
    "methods": {}
  },
  "userdoc": {
    "methods": {}
  }
}